S01700005265616C2D54696D652D436C6F636B2E73726563B4
S11300000C942A000C9447000C9447000C9447006D
S11300100C9447000C94B1080C9447000C944700CE
S11300200C9447000C9447000C9447000C94470030
S11300300C9447000C9447000C9447000C94470020
S11300400C9447000C9447000C9447000C94470010
S11300500C94470011241FBECFE5D8E0DEBFCDBF0E
S113006010E0A0E6B0E0E6EBF2E102C005900D92EC
S1130070A63EB107D9F710E0A6EEB0E001C01D928C
S1130080AA3EB107E1F70E94FA040C9459090C94B2
S1130090000040E00E94500008950E945601089517
S11300A0823451F1833420F4813409F07BC007C0D9
S11300B0833409F43EC0843409F074C057C041301D
S11300C069F42AB381E090E0AC0102C0440F551FEB
S11300D06A95E2F7BA01622B6ABB08952AB381E0FC
S11300E090E0AC0102C0440F551F6A95E2F7BA01D3
S11300F0609562236ABB0895413069F427B381E0B7
S113010090E0AC0102C0440F551F6A95E2F7BA01B2
S1130110622B67BB089527B381E090E0AC0102C075
S1130120440F551F6A95E2F7BA016095622367BBD5
S11301300895413069F424B381E090E0AC0102C039
S1130140440F551F6A95E2F7BA01622B64BB089508
S113015024B381E090E0AC0102C0440F551F6A95BE
S1130160E2F7BA016095622364BB0895413069F4F3
S113017021B381E090E0AC0102C0440F551F6A95A1
S1130180E2F7BA01622B61BB089521B381E090E0EC
S1130190AC0102C0440F551F6A95E2F7BA0160959D
S11301A0622361BB0895823451F1833420F4813495
S11301B009F07BC007C0833409F43EC0843409F0DD
S11301C074C057C0413069F42BB381E090E0AC01B6
S11301D002C0440F551F6A95E2F7BA01622B6BBB4C
S11301E008952BB381E090E0AC0102C0440F551F89
S11301F06A95E2F7BA01609562236BBB08954130BA
S113020069F428B381E090E0AC0102C0440F551FAB
S11302106A95E2F7BA01622B68BB089528B381E0BE
S113022090E0AC0102C0440F551F6A95E2F7BA0191
S11302306095622368BB0895413069F425B381E079
S113024090E0AC0102C0440F551F6A95E2F7BA0171
S1130250622B65BB089525B381E090E0AC0102C038
S1130260440F551F6A95E2F7BA016095622365BB96
S11302700895413069F422B381E090E0AC0102C0FA
S1130280440F551F6A95E2F7BA01622B62BB0895C9
S113029022B381E090E0AC0102C0440F551F6A957F
S11302A0E2F7BA016095622362BB08958234A1F03B
S11302B0833418F4813471F505C08334B9F084347F
S11302C049F51EC029B330E0C90102C09595879550
S11302D06A95E2F78170089526B330E0C90102C03F
S11302E0959587956A95E2F78170089523B330E078
S11302F0C90102C0959587956A95E2F781700895C2
S113030020B330E0C90102C0959587956A95E2F75C
S11303108170089580E008958234B9F0833418F42C
S11303208134C9F505C08334E9F08434A1F527C0CC
S11303302BB381E090E0AC0102C0440F551F6A95D5
S1130340E2F7BA0162276BBB089528B381E090E01D
S1130350AC0102C0440F551F6A95E2F7BA01622747
S113036068BB089525B381E090E0AC0102C0440F5E
S1130370551F6A95E2F7BA01622765BB089522B357
S113038081E090E0AC0102C0440F551F6A95E2F78A
S1130390BA01622762BB0895823461F0833418F491
S11303A0813469F405C0833439F0843441F406C0DF
S11303B06ABB089567BB089564BB089561BB089543
S11303C0823461F0833418F4813469F405C08334D1
S11303D039F0843441F406C06BBB089568BB0895BA
S11303E065BB089562BB0895823461F0833418F4C8
S11303F0813471F405C0833439F0843449F406C07F
S113040089B3089586B3089583B3089580B3089596
S113041080E008950F931F93CF93DF93082FD62F77
S1130420C42F142F1C5F4D2F4170802F6C2F0E94FE
S1130430D300D695CF5FC117B1F7DF91CF911F914C
S11304400F910895823451F1833420F4813409F0FA
S11304507BC007C0833409F43EC0843409F074C0FF
S113046057C0413069F42BB381E090E0AC0102C085
S1130470440F551F6A95E2F7BA01622B6BBB0895CE
S11304802BB381E090E0AC0102C0440F551F6A9584
S1130490E2F7BA01609562236BBB0895413069F4B9
S11304A028B381E090E0AC0102C0440F551F6A9567
S11304B0E2F7BA01622B68BB089528B381E090E0AB
S11304C0AC0102C0440F551F6A95E2F7BA0160956A
S11304D0622368BB0895413069F425B381E090E05C
S11304E0AC0102C0440F551F6A95E2F7BA01622BB2
S11304F065BB089525B381E090E0AC0102C0440FD0
S1130500551F6A95E2F7BA016095622365BB0895A9
S1130510413069F422B381E090E0AC0102C0440FA1
S1130520551F6A95E2F7BA01622B62BB089522B3A4
S113053081E090E0AC0102C0440F551F6A95E2F7D8
S1130540BA016095622362BB0895CF93C82F6FE010
S11305500E94CC018C2F64E041E00E9422028C2F87
S113056065E041E00E9422028C2F66E041E00E9497
S11305702202CF910895FF920F931F93CF93DF939D
S1130580CDB7DEB72C970FB6F894DEBF0FBECDBF44
S1130590082FDE011196E0E6F0E08CE001900D9268
S11305A08150E1F7FF24802F6FE00E94E001802F4B
S11305B06F2D40E00E94D30010E0612F6C5F802F0C
S11305C00E945601882381F48F2D90E0FC01EE0FE8
S11305D0FF1FE80FF91FE10FF11DEC0FFD1F8181D3
S11305E08A3249F0982F04C01F5F133031F712C0CC
S11305F0933221F402C08FEF01C08FEF2C960FB617
S1130600F894DEBF0FBECDBFDF91CF911F910F9144
S1130610FF900895F39484E0F81629F69FEF8FEF86
S1130620E7CFCF93DF93D82FC62F41E00E94D300AA
S11306308FE99FE00197F1F700C000008D2F6C2F28
S113064040E00E94D3008FE99FE00197F1F700C0DA
S11306500000DF91CF910895AF92CF92EF92FF9275
S11306600F931F93CF93DF93C82FD62F142FF22EFF
S113067088E0C81671F48C2F6A2D0E94E001812F46
S11306806F2D40E00E94D300802F6E2D0E94110335
S11306901EC06A2D62956F708C2F4D2F0E940A0226
S11306A0812F6F2D40E00E94D300802F6E2D0E9479
S11306B011038C2F6A2D4D2F0E940A02812F6F2D5A
S11306C040E00E94D300802F6E2D0E9411038FEC16
S11306D097E00197F1F700C00000DF91CF911F91DF
S11306E00F91FF90EF90CF90AF900895AF92CF927B
S11306F0EF92FF920F931F93CF93DF93C82FD62FC0
S1130700142FF22E88E0C81671F48C2F6A2D0E94E3
S1130710E001812F6F2D41E00E94D300802F6E2DC8
S11307200E9411031EC06A2D62956F708C2F4D2F8D
S11307300E940A02812F6F2D41E00E94D300802F76
S11307406E2D0E9411038C2F6A2D4D2F0E940A02D8
S1130750812F6F2D41E00E94D300802F6E2D0E94C7
S113076011038FEC97E00197F1F700C00000DF91CF
S1130770CF911F910F91FF90EF90CF90AF9008957C
S11307806F927F928F929F92AF92BF92CF92DF929D
S1130790EF92FF920F931F93CF93DF93682E762EE1
S11307A0842E922ED02EFE2C1C2DE501A880AA208A
S11307B069F02196862D672D482D292D0D2DEF2CBE
S11307C0C12E0E947603A990AA20A1F7DF91CF91B0
S11307D01F910F91FF90EF90DF90CF90BF90AF905B
S11307E09F908F907F906F900895AF92CF92EF92E9
S11307F00F93AA24A3940E942C038FE19EE40197F3
S1130800F1F700C000000F91EF90CF90AF900895E2
S1130810AF92CF92EF920F93AA246894A1F80E940A
S11308202C038FE19EE40197F1F700C000000F91C3
S1130830EF90CF90AF9008955F926F927F928F92D6
S11308409F92AF92BF92CF92DF92EF92FF920F935B
S11308501F93CF93DF93CDB7DEB7982E762E642EF9
S1130860522ED02EBE2C1C2DFA2C8FEF91EEA4E02C
S113087081509040A040E1F700C0000098E0891644
S113088041F5892D6FEF0E94CC018C2D6A2D41E03A
S11308900E945000862D652D41E00E945000802F5B
S11308A06E2D41E00E945000862D652D40E00E948F
S11308B0D300892D672D402F2E2D0C2DEA2CCC240E
S11308C06894C3F80F2EF8E3AF2EF02D0E942C038A
S11308D032C06FE070E0072C02C0660F771F0A94E5
S11308E0E2F7892D0E94CC018C2D6A2D41E00E94F3
S11308F05000862D652D41E00E945000802F6E2D02
S113090041E00E945000862D652D40E00E94D300F6
S1130910892D672D402F2E2D0C2DEA2CC82C0E94DA
S11309200804892D672D4D2D2B2D0F2EF8E2AF2EA7
S1130930F02D0E942C03892D672D4D2D2B2D012F79
S1130940EF2CC82C0F2EFEE0AF2EF02D0E942C03AE
S1130950892D672D4D2D2B2D0E94F503892D672D93
S11309604D2D2B2D0F2EF6E0AF2EF02D0E942C03D3
S1130970DF91CF911F910F91FF90EF90DF90CF9077
S1130980BF90AF909F908F907F906F905F900895ED
S11309908F92AF92CF92EF920F93CF93DF93CDB715
S11309A0DEB7582F5150523070F4613170F4662321
S11309B071F0813019F4962F91580AC0823041F4B5
S11309C0962F915405C090E803C090E801C090E8C8
S11309D0842F622F402F2E2D0C2DEA2CC82CA92EEB
S11309E00E942C03DF91CF910F91EF90CF90AF90A5
S11309F08F900895CF93DF9300D000D000D0CDB76F
S1130A00DEB782E461E042E426E002E40F2EF7E080
S1130A10EF2EF02D0F2EF2E4CF2EF02D0F2EF5E059
S1130A20AF2EF02D8824689482F80E941C0482E47E
S1130A3060E00E94490081E40E94C60800E010E0E2
S1130A4083E490E0B80141E050E00E9450000F5F61
S1130A501F4F06301105A1F784E40E94A5020E94ED
S1130A60F60882E461E042E427E002E40F2EF5E0B8
S1130A70EF2EF02DCC246894C2F80F2EFCE6AF2E96
S1130A80F0E0BF2EF02D0E94C00382E064E042E457
S1130A9021E00F2EF7E0EF2EF02D0F2EF2E4CF2EF3
S1130AA0F02D0F2EF5E0AF2EF02D8824689482F8F7
S1130AB00E94C80482E461E042E427E00F2EF5E0DE
S1130AC0EF2EF02DCC246894C2F80F2EFBE7AF2E46
S1130AD0F0E0BF2EF02D0E94C0030F2EF5E82F2E5C
S1130AE0F0E03F2EF02D0F2EF2E96F2EF0E07F2E76
S1130AF0F02D0F2EF1EA4F2EF0E05F2EF02D8091B5
S1130B00E8002AE0622F0E944D0989838091E80061
S1130B100E944D099A838091E7000E944D098B83BE
S1130B208091E7000E944D099C838091E9000E9416
S1130B304D098D838091E9000E944D099E834E01E9
S1130B400894811C911CCC24DD24AA24BB2429C034
S1130B50F01639F483E490E0B601A5010E94D300B5
S1130B6007C083E490E0B80141E050E00E94D30064
S1130B700F5F1F4F0630110559F7D4016D914D01D8
S1130B8081E440E00E94CA08E1EEF4E03197F1F715
S1130B9000C000000894C11CD11CF6E0CF16D1049B
S1130BA019F0FC2C8501D4CF8091E9008C3338F006
S1130BB08091E7008F5F8093E7001092E9008091B5
S1130BC0E7008C3338F08091E8008F5F8093E80071
S1130BD01092E7008091E800883110F01092E8004C
S1130BE082E460E00E944D00882309F088CF81E010
S1130BF08093E60000E010E083E490E0B80141E077
S1130C0050E00E94D3000F5F1F4F06301105A1F77B
S1130C1082E461E042E427E002E40F2EF5E0EF2EE7
S1130C20F02DCC246894C2F80E94F50382E461E0BC
S1130C3042E427E051010E94C00384E40E94BB0205
S1130C40182F8F3FD1F384E40E94BB028117D9F39C
S1130C500F2EF0EDFF2EF02DF10E81E06BE042E45B
S1130C6021E002E40F2EF7E0EF2EF02D0F2EF2E438
S1130C70CF2EF02D0F2EF5E0AF2EF02D88246894A2
S1130C8082F80E94C80482E461E042E427E00F2E67
S1130C90F5E0EF2EF02DCC246894C2F8A12E0E942A
S1130CA07603FF0C0F2D000F000F0F0D84E40E943C
S1130CB0BB02182F8F3FD1F384E40E94BB0281173B
S1130CC0D9F30053F02EF10E81E06CE042E421E010
S1130CD002E40F2EF7E0EF2EF02D0F2EF2E4CF2ECC
S1130CE0F02D0F2EF5E0AF2EF02D8824689482F8B5
S1130CF00E94C80482E461E042E427E00F2EF5E09C
S1130D00EF2EF02DCC246894C2F8A12E0E94760315
S1130D108FEB97E2A9E081509040A040E1F700C03A
S1130D2000009BE39F15B8F582E461E042E427E00C
S1130D300E94F50382E461E042E427E053010E944B
S1130D40C00382E061E042E421E00F2EF7E0EF2EE1
S1130D50F02D0F2EF2E4CF2EF02D0F2EF5E0AF2E56
S1130D60F02D0E94C80482E461E042E427E00F2EE3
S1130D70F5E0EF2EF02DCC246894C2F852010E94C5
S1130D80C0038FEB96ECADE281509040A040E1F7B8
S1130D9000C000003DCFF092E90082E461E042E44B
S1130DA027E002E40F2EF5E0EF2EF02DCC2468941A
S1130DB0C2F80E94F50382E461E042E427E00F2ECA
S1130DC0F2EBAF2EF0E0BF2EF02D0E94C00384E4BE
S1130DD00E94BB02182F8F3FD1F384E40E94BB0210
S1130DE08117D9F30F2EF0EDFF2EF02DF10E81E0D7
S1130DF06BE042E421E002E40F2EF7E0EF2EF02D49
S1130E000F2EF2E4CF2EF02D0F2EF5E0AF2EF02DA5
S1130E108824689482F80E94C80482E461E042E471
S1130E2027E00F2EF5E0EF2EF02DCC246894C2F8C5
S1130E30A12E0E947603FF0C0F2D000F000F0F0D43
S1130E4084E40E94BB02182F8F3FD1F384E40E94F4
S1130E50BB028117D9F30053F02EF10E81E06CE050
S1130E6042E421E002E40F2EF7E0EF2EF02D0F2EE6
S1130E70F2E4CF2EF02D0F2EF5E0AF2EF02D8824C6
S1130E80689482F80E94C80482E461E042E427E0A6
S1130E900F2EF5E0EF2EF02DCC246894C2F8A12E8D
S1130EA00E9476038FEB97E2A9E081509040A04026
S1130EB0E1F700C000009BE39F15B8F582E461E010
S1130EC042E427E00E94F50382E461E042E427E083
S1130ED053010E94C00382E061E042E421E00F2E4E
S1130EE0F7E0EF2EF02D0F2EF2E4CF2EF02D0F2E83
S1130EF0F5E0AF2EF02D0E94C80482E461E042E4E4
S1130F0027E00F2EF5E0EF2EF02DCC246894C2F8E4
S1130F1052010E94C0038FEB96ECADE281509040E9
S1130F20A040E1F700C0000038CFF092E70082E46F
S1130F3061E042E427E002E40F2EF5E0EF2EF02D0D
S1130F40CC246894C2F80E94F50382E461E042E490
S1130F5027E00F2EFFEBAF2EF0E0BF2EF02D0E9406
S1130F60C00384E40E94BB02182F8F3FD1F384E4B2
S1130F700E94BB028117D9F30F2EF0EDFF2EF02D46
S1130F80F10E81E069E042E421E002E40F2EF7E093
S1130F90EF2EF02D0F2EF2E4CF2EF02D0F2EF5E0D4
S1130FA0AF2EF02D8824689482F80E94C80482E44D
S1130FB061E042E427E00F2EF5E0EF2EF02DCC2483
S1130FC06894C2F8A12E0E947603FF0C0F2D000F27
S1130FD0000F0F0D84E40E94BB02182F8F3FD1F342
S1130FE084E40E94BB028117D9F30053F02EF10E62
S1130FF081E06AE042E421E002E40F2EF7E0EF2E04
S1131000F02D0F2EF2E4CF2EF02D0F2EF5E0AF2EA3
S1131010F02D8824689482F80E94C80482E461E078
S113102042E427E00F2EF5E0EF2EF02DCC24689457
S1131030C2F8A12E0E9476038FEB97E2A9E08150BB
S11310409040A040E1F700C0000097E19F15E0F553
S113105082E461E042E427E00E94F50382E461E077
S113106042E427E053010E94C00382E061E042E4CD
S113107021E00F2EF7E0EF2EF02D0F2EF2E4CF2E0D
S1131080F02D0F2EF5E0AF2EF02D0E94C80482E45F
S113109061E042E427E00F2EF5E0EF2EF02DCC24A2
S11310A06894C2F80F2EFAECAF2EF0E0BF2EF02DAC
S11310B00E94C0038FEB96ECADE281509040A040BB
S11310C0E1F700C0000033CFF092E80082E461E071
S11310D042E427E002E40F2EF5E0EF2EF02DCC24BD
S11310E06894C2F80E94F50382E461E042E427E0D8
S11310F00F2EFCE6AF2EF0E0BF2EF02D0E94C003B1
S113110082E064E042E421E00F2EF7E0EF2EF02DC0
S11311100F2EF2E4CF2EF02D0F2EF5E0AF2EF02D92
S11311208824689482F80E94C80482E461E042E45E
S113113027E00F2EF5E0EF2EF02DCC246894C2F8B2
S11311400F2EFBE7AF2EF0E0BF2EF02D0E94C00360
S113115082E460E00E944D008823D1F31092E600FF
S1131160CECC1F920F920FB60F9211248F938091C1
S1131170E600882329F48091E9008F5F8093E900D9
S11311808F910F900FBE0F901F9018956FEF0E94D4
S1131190CC010895CF93DF93CDB7DEB72A970FB66E
S11311A0F894DEBF0FBECDBFDE011196EBEDF0E08B
S11311B09AE001900D929150E1F7442339F4FE0135
S11311C0E60FF11D61810E94E00107C0FE01E60FF8
S11311D0F11D618160950E94E0012A960FB6F89492
S11311E0DEBF0FBECDBFDF91CF91089582B5886079
S11311F082BD85B5816085BD85B5846085BD7894E3
S113120089B7806489BF089583B7886083BF80E508
S11312108CBF83B7816083BF83B7846083BF7894B6
S113122089B7826089BF0895BB9A83B7886083BFFA
S113123080E48CBF83B7816083BF83B7846083BF3E
S113124083B7806183BF0895BB9A83B7806483BFEB
S113125083B7886083BF80E48CBF83B7816083BF1A
S113126083B7846083BF83B7806183BF83B78062A1
S113127083BF0895BB9A83B7806483BF80E48CBF27
S113128083B7816083BF83B7846083BF83B7806182
S113129083BF83B7806283BF0895991B79E004C03C
S11312A0991F961708F0961B881F7A95C9F78095A1
S10912B00895F894FFCF3D
S11312B63132333435363738392A302320205072C8
S11312C66573732053455420746F007365742063EB
S11312D66C6F636B005365636F6E6473203D205FB0
S11312E65F00206E756D2073686F756C642062658F
S11312F6006265747765656E203020616E64203502
S113130639004D696E75746573203D205F5F004832
S11313166F757273203D205F5F0062657477656543
S11313266E203020616E64203233003F065B4F66C8
S10913366D7D477F6F008E
S9030000FC
